:020000040800F2
:1000000000280020750C0008190C00081F0C0008BF
:10001000250C00082B0C0008310C00080000000023
:10002000000000000000000000000000370C000885
:10003000430C0008000000004F0C00085B0C000897
:10004000BD0C0008BD0C0008BD0C0008BD0C00086C
:10005000BD0C0008BD0C0008BD0C0008BD0C00085C
:10006000BD0C0008BD0C0008BD0C0008BD0C00084C
:10007000BD0C0008BD0C0008BD0C0008BD0C00083C
:10008000BD0C0008BD0C0008BD0C0008BD0C00082C
:10009000BD0C0008BD0C0008BD0C0008BD0C00081C
:1000A000BD0C0008BD0C0008BD0C0008BD0C00080C
:1000B000BD0C0008BD0C000800000000BD0C0008CD
:1000C000BD0C00080000000000000000BD0C00088E
:1000D00000000000BD0C0008BD0C0008000000007E
:1000E000BD0C0008BD0C0008BD0C0008000000009D
:1000F0000000000000000000000000000000000000
:0C01000000000000000000005FF808F1A3
:10010C0010B5054C237833B9044B13B10448AFF345
:10011C0000800123237010BD0C00002000000000A3
:10012C00C81A000808B5034B1BB103490348AFF3C9
:10013C00008008BD0000000010000020C81A000854
:10014C0080B582B000AF78607B68002B22D1002292
:10015C000121BD4801F092F800220221BA4801F0B9
:10016C008DF800220421B84801F088F800220821FB
:10017C00B54801F083F800221021B34801F07EF855
:10018C0000222021B04801F079F801224021AE482C
:10019C0001F074F87B68012B22D101220121AA48BD
:1001AC0001F06CF800220221A74801F067F8002248
:1001BC000421A54801F062F801220821A24801F0AF
:1001CC005DF801221021A04801F058F801222021ED
:1001DC009D4801F053F8012240219B4801F04EF854
:1001EC007B68022B22D100220121974801F046F8AE
:1001FC0000220221944801F041F801220421924886
:10020C0001F03CF8002208218F4801F037F8002259
:10021C0010218D4801F032F8012220218A4801F08A
:10022C002DF800224021884801F028F87B68032B28
:10023C0022D100220121844801F020F80022022161
:10024C00814801F01BF8002204217F4801F016F8C8
:10025C00002208217C4801F011F8012210217A4873
:10026C0001F00CF801222021774801F007F8002258
:10027C004021754801F002F87B68042B22D1012241
:10028C000121714800F0FAFF002202216E4800F0B3
:10029C00F5FF002204216C4800F0F0FF0122082138
:1002AC00694800F0EBFF01221021674800F0E6FFDF
:1002BC0000222021644800F0E1FF00224021624826
:1002CC0000F0DCFF7B68052B22D1002201215E4867
:1002DC0000F0D4FF012202215B4800F0CFFF002286
:1002EC000421594800F0CAFF00220821564800F0AA
:1002FC00C5FF01221021544800F0C0FF002220212C
:10030C00514800F0BBFF002240214F4800F0B6FFDF
:10031C007B68062B22D1002201214B4800F0AEFF56
:10032C0001220221484800F0A9FF0022042146487E
:10033C0000F0A4FF00220821434800F09FFF002298
:10034C001021414800F09AFF002220213E4800F085
:10035C0095FF002240213C4800F090FF7B68072B62
:10036C0022D100220121384800F088FF002202210E
:10037C00354800F083FF00220421334800F07EFF53
:10038C0001220821304800F079FF012210212E486B
:10039C0000F074FF012220212B4800F06FFF012296
:1003AC004021294800F06AFF7B68082B22D10022EB
:1003BC000121254800F062FF00220221224800F0B2
:1003CC005DFF00220421204800F058FF0022082184
:1003DC001D4800F053FF002210211B4800F04EFF77
:1003EC0000222021184800F049FF00224021164825
:1003FC0000F044FF7B68092B22D100220121124816
:10040C0000F03CFF002202210F4800F037FF0022D1
:10041C0004210D4800F032FF002208210A4800F0A8
:10042C002DFF01221021084800F028FF0022202176
:10043C00054800F023FF00224021034800F01EFF76
:10044C0000BF0837BD4680BD000C014080B582B0AE
:10045C0000AF78607B68002B29D100224FF48071AB
:10046C00D34800F00BFF00224FF40071D04800F08D
:10047C0005FF00224FF48061CD4800F0FFFE002202
:10048C004FF40061CA4800F0F9FE00224FF480518D
:10049C00C74800F0F3FE00224FF40051C44800F0AE
:1004AC00EDFE01224FF48041C14800F0E7FE7B686D
:1004BC00012B29D101224FF48071BD4800F0DEFEE2
:1004CC0000224FF40071BA4800F0D8FE00224FF41D
:1004DC008061B74800F0D2FE01224FF40061B448AD
:1004EC0000F0CCFE01224FF48051B14800F0C6FE62
:1004FC0001224FF40051AE4800F0C0FE01224FF42F
:10050C008041AB4800F0BAFE7B68022B29D1002257
:10051C004FF48071A64800F0B1FE00224FF4007138
:10052C00A34800F0ABFE01224FF48061A04800F01C
:10053C00A5FE00224FF400619D4800F09FFE0022B2
:10054C004FF480519A4800F099FE01224FF400516B
:10055C00974800F093FE00224FF48041944800F03D
:10056C008DFE7B68032B29D100224FF480719048BB
:10057C0000F084FE00224FF400718D4800F07EFEE6
:10058C0000224FF480618A4800F078FE00224FF47C
:10059C000061874800F072FE01224FF480518448BC
:1005AC0000F06CFE01224FF40051814800F066FE11
:1005BC0000224FF480417E4800F060FE7B68042BE3
:1005CC0029D101224FF48071794800F057FE0022A6
:1005DC004FF40071764800F051FE00224FF4806118
:1005EC00734800F04BFE01224FF40061704800F09C
:1005FC0045FE01224FF480516D4800F03FFE002271
:10060C004FF400516A4800F039FE00224FF480414B
:10061C00674800F033FE7B68052B29D100224FF48C
:10062C008071634800F02AFE01224FF4007160488B
:10063C0000F024FE00224FF480615D4800F01EFEA5
:10064C0000224FF400615A4800F018FE01224FF4CA
:10065C008051574800F012FE00224FF400515448CC
:10066C0000F00CFE00224FF48041514800F006FED1
:10067C007B68062B29D100224FF480714C4800F086
:10068C00FDFD01224FF40071494800F0F7FD0022F6
:10069C004FF48061464800F0F1FD00224FF40061F8
:1006AC00434800F0EBFD00224FF48051404800F02D
:1006BC00E5FD00224FF400513D4800F0DFFD002223
:1006CC004FF480413A4800F0D9FD7B68072B29D1C3
:1006DC0000224FF48071364800F0D0FD00224FF418
:1006EC000071334800F0CAFD00224FF4806130489D
:1006FC0000F0C4FD01224FF400612D4800F0BEFD56
:10070C0001224FF480512A4800F0B8FD01224FF429
:10071C000051274800F0B2FD01224FF480412448DB
:10072C0000F0ACFD7B68082B29D100224FF48071BE
:10073C001F4800F0A3FD00224FF400711C4800F08C
:10074C009DFD00224FF48061194800F097FD0022B6
:10075C004FF40061164800F091FD00224FF48051D7
:10076C00134800F08BFD00224FF40051104800F0AC
:10077C0085FD00224FF480410D4800F07FFD7B6821
:10078C00092B2CD100224FF48071094800F076FD22
:10079C0000224FF40071064800F070FD00224FF467
:1007AC008061034800F06AFD00224FF4006101E013
:1007BC00000801400C4800F061FD01224FF480510B
:1007CC00094800F05BFD00224FF40051064800F090
:1007DC0055FD00224FF48041034800F04FFD00BF4F
:1007EC000837BD4680BD00BF0008014080B584B00D
:1007FC0000AF00F05FFA00F03FF900F079F9012248
:10080C0020219B4800F03AFD01224021984800F03D
:10081C0035FD01228021964800F030FD0022802118
:10082C00944800F02BFD00224FF48071914800F0A9
:10083C0025FD00224FF400718E4800F01FFD0022B0
:10084C004FF480618B4800F019FD00224FF40061D9
:10085C00884800F013FD00224FF48051854800F0C9
:10086C000DFD00224FF48071814800F007FD00223D
:10087C004FF400717E4800F001FD00224FF48061BE
:10088C007B4800F0FBFC00224FF40061784800F03C
:10089C00F5FC00224FF48051754800F0EFFC00226B
:1008AC004FF40051724800F0E9FC00224FF48041F3
:1008BC006F4800F0E3FC00224FF400416C4800F05C
:1008CC00DDFC002210216A4800F0D8FC0623FB60F6
:1008DC000423BB6000237B60FB68022B28DDBB6814
:1008EC00002B25DD7B68002B22DC00224FF480716D
:1008FC00604800F0C3FC00224FF480615D4800F0BA
:10090C00BDFC012280215B4800F0B8FC01224FF4B1
:10091C008051584800F0B2FCFB68013BFB60BB689F
:10092C00013BBB60F868FFF70BFCB868FFF78EFD66
:10093C00FB68022B16D1BB68002B13DC00224FF492
:10094C0080514C4800F09AFC01224FF40061494858
:10095C0000F094FC0223BB60F868FFF7F1FBB86869
:10096C00FFF774FDFB68022B12DCBB68022B0FDC5B
:10097C00FA68BB689A420BD1F868FFF7E1FBB868DC
:10098C00FFF764FDFB68013BFB60BB68013BBB6090
:10099C00FB68002B22DABB68002B1FDA7B68002B6C
:1009AC001CD100224FF40061324800F067FC002299
:1009BC008021304800F062FC01224FF480612D4808
:1009CC0000F05CFC01224FF400712A4800F056FC48
:1009DC000423FB600623BB6001237B60BB68022BF6
:1009EC0011DDFB68002B0EDD7B68012B0BD1FB6846
:1009FC00013BFB60BB68013BBB60F868FFF7A0FBE9
:100A0C00B868FFF723FDBB68022B1CD1FB68002BD9
:100A1C0019DC00224FF40071164800F02FFC012263
:100A2C004FF48071134800F029FC0223FB60F86836
:100A3C00FFF786FBB868FFF709FDFB68013BFB601D
:100A4C00BB68013BBB60FB68002B0BDCBB68002B5D
:100A5C0008DC7B68012B05D10623FB600423BB60FB
:100A6C0000237B604FF47A7000F086F934E700BF06
:100A7C0000080140000C014080B590B000AF07F1B8
:100A8C00180328220021184601F010F83B1D002203
:100A9C001A605A609A60DA601A610223BB61012302
:100AAC00BB621023FB6200237B6307F1180318461B
:100ABC0000F0FCFB0346002B01D000F06FF80F2375
:100ACC007B600023BB600023FB6000233B610023A1
:100ADC007B613B1D0021184600F068FE0346002B8D
:100AEC0001D000F05BF800BF4037BD4680BD000070
:100AFC0080B586B000AF07F1080300221A605A6077
:100B0C009A60DA60224B9B69214A43F0040393619B
:100B1C001F4B9B6903F004037B607B681C4B9B6938
:100B2C001B4A43F008039361194B9B6903F00803BC
:100B3C003B603B6800224FF6FE71164800F09EFBAE
:100B4C00002241F6FF71144800F098FB4FF6FE733B
:100B5C00BB600123FB6000233B6102237B6107F137
:100B6C00080319460B4800F00FFA41F6FF73BB60FF
:100B7C000123FB6000233B6102237B6107F1080327
:100B8C001946054800F000FA00BF1837BD4680BD75
:100B9C000010024000080140000C014080B400AF7E
:100BAC0072B600BFFEE7000080B485B000AF154BF5
:100BBC009B69144A43F001039361124B9B6903F048
:100BCC000103BB60BB680F4BDB690E4A43F08053DB
:100BDC00D3610C4BDB6903F080537B607B680A4B61
:100BEC005B68FB60FB6823F0E063FB60FB6843F031
:100BFC008063FB60044AFB68536000BF1437BD463A
:100C0C0080BC7047001002400000014080B400AF6F
:100C1C00FEE780B400AFFEE780B400AFFEE780B41F
:100C2C0000AFFEE780B400AFFEE780B400AF00BFBA
:100C3C00BD4680BC704780B400AF00BFBD4680BCD1
:100C4C00704780B400AF00BFBD4680BC704780B514
:100C5C0000AF00F075F800BF80BD80B400AF00BFDE
:100C6C00BD4680BC70470000FFF7F7FF0B480C49EE
:100C7C000C4A002302E0D458C4500433C4188C42EC
:100C8C00F9D3094A094C002301E013600432A24253
:100C9C00FBD300F0E7FEFFF7A9FD70470000002032
:100CAC000C0000200C1B00080C0000202C00002065
:100CBC00FEE7000080B500AF084B1B68074A43F005
:100CCC0010031360032000F02BF90F2000F008F83C
:100CDC00FFF76AFF0023184680BD00BF00200240CA
:100CEC0080B582B000AF7860124B1A68124B1B783B
:100CFC0019464FF47A73B3FBF1F3B2FBF3F31846D6
:100D0C0000F035F90346002B01D001230EE07B687F
:100D1C000F2B0AD8002279684FF0FF3000F00BF946
:100D2C00064A7B681360002300E00123184608374D
:100D3C00BD4680BD000000200800002004000020FB
:100D4C0080B400AF054B1B781A46054B1B68134447
:100D5C00034A136000BFBD4680BC704708000020EA
:100D6C002800002080B400AF024B1B681846BD461B
:100D7C0080BC70472800002080B584B000AF78603C
:100D8C00FFF7F0FFB8607B68FB60FB68B3F1FF3FD7
:100D9C0005D00A4B1B781A46FB681344FB6000BF56
:100DAC00FFF7E0FF0246BB68D31AFA689A42F7D8FD
:100DBC0000BF00BF1037BD4680BD00BF080000203B
:100DCC0080B485B000AF78607B6803F00703FB60EC
:100DDC000C4BDB68BB60BA684FF6FF031340BB607B
:100DEC00FB681A02BB68134343F0BF6343F4003340
:100DFC00BB60044ABB68D36000BF1437BD4680BCDF
:100E0C00704700BF00ED00E080B400AF044BDB681E
:100E1C001B0A03F007031846BD4680BC704700BF91
:100E2C0000ED00E080B483B000AF03463960FB7185
:100E3C0097F90730002B0ADB3B68DAB20C4997F9BB
:100E4C0007301201D2B20B4483F800230AE03B684E
:100E5C00DAB20849FB7903F00F03043B1201D2B25A
:100E6C000B441A7600BF0C37BD4680BC704700BFE0
:100E7C0000E100E000ED00E080B489B000AFF86064
:100E8C00B9607A60FB6803F00703FB61FB69C3F18F
:100E9C000703042B28BF0423BB61FB690433062B17
:100EAC0002D9FB69033B00E000237B614FF0FF326A
:100EBC00BB6902FA03F3DA43BB681A407B699A40B8
:100ECC004FF0FF317B6901FA03F3D9437B680B4088
:100EDC00134318462437BD4680BC704780B582B09A
:100EEC0000AF78607B68013BB3F1807F01D30123B5
:100EFC000FE00A4A7B68013B53600F214FF0FF3033
:100F0C00FFF790FF054B00229A60044B07221A60F2
:100F1C00002318460837BD4680BD00BF10E000E036
:100F2C0080B582B000AF78607868FFF749FF00BFEA
:100F3C000837BD4680BD80B586B000AF0346B960AA
:100F4C007A60FB7300237B61FFF75EFF78617A6840
:100F5C00B9687869FFF790FF024697F90F30114690
:100F6C001846FFF75FFF00BF1837BD4680BD80B540
:100F7C0082B000AF78607868FFF7B0FF0346184680
:100F8C000837BD4680BD000080B48BB000AF7860E0
:100F9C00396000237B6200233B6248E101227B6ABB
:100FAC0002FA03F3FB613B681B68FA691340BB61EF
:100FBC00BA69FB699A4240F037813B685B68A34A87
:100FCC0093425ED0A14A934275D8A14A934258D01D
:100FDC009F4A93426FD89F4A934252D09D4A934264
:100FEC0069D89D4A93424CD09B4A934263D89B4A02
:100FFC00934246D0994A93425DD8122B2AD8122B91
:10100C0059D801A252F823F08F100008691000087B
:10101C007B100008BD100008C3100008C3100008A6
:10102C00C3100008C3100008C3100008C310000848
:10103C00C3100008C3100008C3100008C310000838
:10104C00C3100008C3100008C3100008711000087A
:10105C0085100008824A934213D02CE03B68DB6871
:10106C003B6229E03B68DB6804333B6224E03B686D
:10107C00DB6808333B621FE03B68DB680C333B6288
:10108C001AE03B689B68002B02D104233B6213E0FF
:10109C003B689B68012B05D108233B627B68FA698E
:1010AC001A6109E008233B627B68FA695A6103E024
:1010BC0000233B6200E000BFBB69FF2B01D87B68BB
:1010CC0001E07B6804337B61BB69FF2B02D87B6A30
:1010DC009B0002E07B6A083B9B003B617B691A68C2
:1010EC000F213B6901FA03F3DB431A40396A3B6970
:1010FC0001FA03F31A437B691A603B685B6803F0DF
:10110C008053002B00F09080564B9B69554A43F05E
:10111C0001039361534B9B6903F00103BB60BB68F4
:10112C00514A7B6A9B08023352F82330FB607B6A7E
:10113C0003F003039B000F2202FA03F3DB43FA686C
:10114C001340FB607B68494A93420DD07B68484A48
:10115C00934207D07B68474A934201D1022304E0B3
:10116C00032302E0012300E000237A6A02F0030269
:10117C0092009340FA681343FB603B497B6A9B08DF
:10118C000233FA6841F823203B685B6803F4801350
:10119C00002B06D0384B9A683749BB6913438B60D8
:1011AC0006E0354B9A68BB69DB43334913408B60CF
:1011BC003B685B6803F40013002B06D02E4BDA68F7
:1011CC002D49BB691343CB6006E02B4BDA68BB6936
:1011DC00DB4329491340CB603B685B6803F4003365
:1011EC00002B06D0244B5A682349BB6913434B6030
:1011FC0006E0214B5A68BB69DB431F4913404B6027
:10120C003B685B6803F48033002B06D01A4B1A68DA
:10121C001949BB6913430B6006E0174B1A68BB698D
:10122C00DB43154913400B607B6A01337B623B68DF
:10123C001A687B6A22FA03F3002B7FF4AFAE00BF6F
:10124C0000BF2C37BD4680BC704700BF0000321079
:10125C0000003110000022100000211000001210BC
:10126C000000111000100240000001400008014075
:10127C00000C0140001001400004014080B483B018
:10128C0000AF78600B467B8013467B707B78002B1D
:10129C0003D07A887B681A6103E07B881A047B6828
:1012AC001A6100BF0C37BD4680BC704780B586B054
:1012BC0000AF78607B68002B01D101236CE27B6866
:1012CC001B6803F00103002B00F08780924B5B68D6
:1012DC0003F00C03042B0CD08F4B5B6803F00C0356
:1012EC00082B12D18C4B5B6803F48033B3F5803F31
:1012FC000BD1894B1B6803F40033002B6CD07B683B
:10130C005B68002B68D1012346E27B685B68B3F510
:10131C00803F06D1804B1B687F4A43F480331360B7
:10132C002EE07B685B68002B0CD17B4B1B687A4AE8
:10133C0023F480331360784B1B68774A23F48023A3
:10134C0013601DE07B685B68B3F5A02F0CD1724B6A
:10135C001B68714A43F4802313606F4B1B686E4A01
:10136C0043F4803313600BE06B4B1B686A4A23F425
:10137C0080331360684B1B68674A23F48023136027
:10138C007B685B68002B13D0FFF7ECFC386108E03E
:10139C00FFF7E8FC02463B69D31A642B01D90323FF
:1013AC00FAE15D4B1B6803F40033002BF0D014E022
:1013BC00FFF7D8FC386108E0FFF7D4FC02463B6924
:1013CC00D31A642B01D90323E6E1534B1B6803F4B6
:1013DC000033002BF0D100E000BF7B681B6803F0EA
:1013EC000203002B63D04C4B5B6803F00C03002B07
:1013FC000BD0494B5B6803F00C03082B1CD1464BFC
:10140C005B6803F48033002B16D1434B1B6803F04D
:10141C000203002B05D07B681B69012B01D0012333
:10142C00BAE13D4B1B6823F0F8027B685B69DB007B
:10143C00394913430B603AE07B681B69002B20D0C1
:10144C00364B01221A60FFF78DFC386108E0FFF77C
:10145C0089FC02463B69D31A022B01D903239BE179
:10146C002D4B1B6803F00203002BF0D02A4B1B689A
:10147C0023F0F8027B685B69DB00274913430B60A0
:10148C0015E0264B00221A60FFF76CFC386108E06F
:10149C00FFF768FC02463B69D31A022B01D90323E0
:1014AC007AE11D4B1B6803F00203002BF0D17B6823
:1014BC001B6803F00803002B3AD07B689B69002B58
:1014CC0019D0174B01221A60FFF74CFC386108E069
:1014DC00FFF748FC02463B69D31A022B01D90323C0
:1014EC005AE10D4B5B6A03F00203002BF0D0012094
:1014FC0000F09AFA1CE00A4B00221A60FFF732FC4B
:10150C0038610FE0FFF72EFC02463B69D31A022B21
:10151C0008D9032340E100BF001002400000424202
:10152C00800442429E4B5B6A03F00203002BE9D11C
:10153C007B681B6803F00403002B00F0A6800023DB
:10154C00FB75974BDB6903F08053002B0DD1944B4B
:10155C00DB69934A43F08053D361914BDB6903F011
:10156C008053BB60BB680123FB758E4B1B6803F477
:10157C008073002B18D18B4B1B688A4A43F4807301
:10158C001360FFF7EFFB386108E0FFF7EBFB024657
:10159C003B69D31A642B01D90323FDE0814B1B68F3
:1015AC0003F48073002BF0D07B68DB68012B06D131
:1015BC007B4B1B6A7A4A43F0010313622DE07B6874
:1015CC00DB68002B0CD1764B1B6A754A23F00103A8
:1015DC001362734B1B6A724A23F0040313621CE000
:1015EC007B68DB68052B0CD16D4B1B6A6C4A43F096
:1015FC00040313626A4B1B6A694A43F001031362CA
:10160C000BE0674B1B6A664A23F001031362644BC1
:10161C001B6A634A23F0040313627B68DB68002BAC
:10162C0015D0FFF79FFB38610AE0FFF79BFB0246E2
:10163C003B69D31A41F28832934201D90323ABE0C0
:10164C00574B1B6A03F00203002BEED014E0FFF79C
:10165C0089FB38610AE0FFF785FB02463B69D31A28
:10166C0041F28832934201D9032395E04C4B1B6A1B
:10167C0003F00203002BEED1FB7D012B05D1484B6F
:10168C00DB69474A23F08053D3617B68DB69002B0D
:10169C0000F08180424B5B6803F00C03082B61D097
:1016AC007B68DB69022B46D13F4B00221A60FFF7A7
:1016BC0059FB386108E0FFF755FB02463B69D31A2A
:1016CC00022B01D9032367E0354B1B6803F0007331
:1016DC00002BF0D17B681B6AB3F5803F08D1304BEF
:1016EC005B6823F400327B689B682D4913434B6085
:1016FC002B4B5B6823F474127B68196A7B685B6AFA
:10170C000B43274913434B60274B01221A60FFF709
:10171C0029FB386108E0FFF725FB02463B69D31A29
:10172C00022B01D9032337E01D4B1B6803F0007318
:10173C00002BF0D02FE01C4B00221A60FFF712FB9D
:10174C00386108E0FFF70EFB02463B69D31A022B07
:10175C0001D9032320E0124B1B6803F00073002B0C
:10176C00F0D118E07B68DB69012B01D1012313E078
:10177C000B4B5B68FB60FB6803F480327B681B6A75
:10178C009A4206D1FB6803F470127B685B6A9A423A
:10179C0001D0012300E0002318461837BD4680BD58
:1017AC0000100240007000406000424280B584B0DE
:1017BC0000AF786039607B68002B01D10123D0E049
:1017CC006A4B1B6803F007033A689A4210D9674BBF
:1017DC001B6823F0070265493B6813430B60634B9E
:1017EC001B6803F007033A689A4201D00123B8E062
:1017FC007B681B6803F00203002B20D07B681B68FE
:10180C0003F00403002B05D0594B5B68584A43F492
:10181C00E06353607B681B6803F00803002B05D062
:10182C00534B5B68524A43F460535360504B5B68B4
:10183C0023F0F0027B689B684D4913434B607B6837
:10184C001B6803F00103002B40D07B685B68012B05
:10185C0007D1474B1B6803F40033002B15D1012330
:10186C007FE07B685B68022B07D1414B1B6803F060
:10187C000073002B09D1012373E03D4B1B6803F06F
:10188C000203002B01D101236BE0394B5B6823F081
:10189C0003027B685B68364913434B60FFF762FABF
:1018AC00F8600AE0FFF75EFA0246FB68D31A41F2D1
:1018BC008832934201D9032353E02D4B5B6803F02C
:1018CC000C027B685B689B009A42EBD1274B1B6830
:1018DC0003F007033A689A4210D2244B1B6823F09A
:1018EC00070222493B6813430B60204B1B6803F033
:1018FC0007033A689A4201D0012332E07B681B68E7
:10190C0003F00403002B08D0194B5B6823F4E0624E
:10191C007B68DB68164913434B607B681B6803F0DC
:10192C000803002B09D0124B5B6823F460527B68D0
:10193C001B69DB000E4913434B6000F021F8024693
:10194C000B4B5B681B0903F00F030A49CB5C22FAB3
:10195C0003F3094A1360094B1B681846FFF7C0F9DB
:10196C00002318461037BD4680BD00BF0020024042
:10197C0000100240E01A00080000002004000020C3
:10198C0080B487B000AF0023FB600023BB60002352
:10199C007B6100237B6000233B611E4B5B68FB601B
:1019AC00FB6803F00C03042B02D0082B03D027E0B8
:1019BC00194B3B6127E0FB689B0C03F00F03174AA4
:1019CC00D35C7B60FB6803F48033002B10D0114B8D
:1019DC005B685B0C03F00103114AD35CBB607B6852
:1019EC000D4A02FB03F2BB68B2FBF3F37B6104E02C
:1019FC007B680C4A02FB03F37B617B693B6102E071
:101A0C00054B3B6100BF3B6918461C37BD4680BC8B
:101A1C00704700BF0010024000127A00F01A000854
:101A2C00001B000800093D0080B485B000AF786051
:101A3C000A4B1B680A4AA2FB03235B0A7A6802FB67
:101A4C0003F3FB6000BFFB685A1EFA60002BF9D150
:101A5C0000BF00BF1437BD4680BC7047000000209B
:101A6C00D34D621070B500260C4D0D4C641BA410A8
:101A7C00A64209D100F022F800260A4D0A4C641B3C
:101A8C00A410A64205D170BD55F8043B9847013609
:101A9C00EEE755F8043B98470136F2E7041B0008C3
:101AAC00041B0008041B0008081B00080346024422
:101ABC00934200D1704703F8011BF9E7F8B500BF5A
:101ACC00F8BC08BC9E467047F8B500BFF8BC08BC13
:041ADC009E4670476B
:101AE00000000000000000000102030406070809CE
:101AF00002030405060708090A0B0C0D0E0F10104F
:041B000001020000DE
:041B040031010008A3
:041B08000D010008C3
:0C1B0C0000127A00100000000100000030
:0400000508000C756E
:00000001FF
